{
  "contractName": "Airline",
  "abi": [
    {
      "inputs": [],
      "stateMutability": "nonpayable",
      "type": "constructor"
    },
    {
      "anonymous": false,
      "inputs": [
        {
          "indexed": true,
          "internalType": "address",
          "name": "customer",
          "type": "address"
        },
        {
          "indexed": false,
          "internalType": "uint256",
          "name": "price",
          "type": "uint256"
        }
      ],
      "name": "FlightPurchased",
      "type": "event"
    },
    {
      "inputs": [
        {
          "internalType": "address",
          "name": "",
          "type": "address"
        },
        {
          "internalType": "uint256",
          "name": "",
          "type": "uint256"
        }
      ],
      "name": "customerFlights",
      "outputs": [
        {
          "internalType": "string",
          "name": "name",
          "type": "string"
        },
        {
          "internalType": "uint256",
          "name": "price",
          "type": "uint256"
        }
      ],
      "stateMutability": "view",
      "type": "function",
      "constant": true
    },
    {
      "inputs": [
        {
          "internalType": "address",
          "name": "",
          "type": "address"
        }
      ],
      "name": "customerTotalFlights",
      "outputs": [
        {
          "internalType": "uint256",
          "name": "",
          "type": "uint256"
        }
      ],
      "stateMutability": "view",
      "type": "function",
      "constant": true
    },
    {
      "inputs": [
        {
          "internalType": "address",
          "name": "",
          "type": "address"
        }
      ],
      "name": "customers",
      "outputs": [
        {
          "internalType": "uint256",
          "name": "loyaltyPoints",
          "type": "uint256"
        },
        {
          "internalType": "uint256",
          "name": "totalFlights",
          "type": "uint256"
        }
      ],
      "stateMutability": "view",
      "type": "function",
      "constant": true
    },
    {
      "inputs": [
        {
          "internalType": "uint256",
          "name": "",
          "type": "uint256"
        }
      ],
      "name": "flights",
      "outputs": [
        {
          "internalType": "string",
          "name": "name",
          "type": "string"
        },
        {
          "internalType": "uint256",
          "name": "price",
          "type": "uint256"
        }
      ],
      "stateMutability": "view",
      "type": "function",
      "constant": true
    },
    {
      "inputs": [],
      "name": "owner",
      "outputs": [
        {
          "internalType": "address",
          "name": "",
          "type": "address"
        }
      ],
      "stateMutability": "view",
      "type": "function",
      "constant": true
    },
    {
      "inputs": [
        {
          "internalType": "uint256",
          "name": "flightIndex",
          "type": "uint256"
        }
      ],
      "name": "buyFlight",
      "outputs": [],
      "stateMutability": "payable",
      "type": "function",
      "payable": true
    },
    {
      "inputs": [],
      "name": "totalFlights",
      "outputs": [
        {
          "internalType": "uint256",
          "name": "",
          "type": "uint256"
        }
      ],
      "stateMutability": "view",
      "type": "function",
      "constant": true
    },
    {
      "inputs": [],
      "name": "redeemLoyaltyPoints",
      "outputs": [],
      "stateMutability": "payable",
      "type": "function",
      "payable": true
    },
    {
      "inputs": [],
      "name": "getRefundableEther",
      "outputs": [
        {
          "internalType": "uint256",
          "name": "",
          "type": "uint256"
        }
      ],
      "stateMutability": "view",
      "type": "function",
      "constant": true
    },
    {
      "inputs": [],
      "name": "getAirlineBalance",
      "outputs": [
        {
          "internalType": "uint256",
          "name": "",
          "type": "uint256"
        }
      ],
      "stateMutability": "view",
      "type": "function",
      "constant": true
    }
  ],
  "bytecode": "0x60806040526706f05b59d3b200006001553480156200001d57600080fd5b50336000806101000a81548173ffffffffffffffffffffffffffffffffffffffff021916908373ffffffffffffffffffffffffffffffffffffffff160217905550600260405180604001604052806040518060400160405280600581526020017f546f6b696f0000000000000000000000000000000000000000000000000000008152508152602001673782dace9d90000081525090806001815401808255809150506001900390600052602060002090600202016000909190919091506000820151816000019080519060200190620000f99291906200025c565b50602082015181600101555050600260405180604001604052806040518060400160405280600781526020017f4765726d616e79000000000000000000000000000000000000000000000000008152508152602001670de0b6b3a764000081525090806001815401808255809150506001900390600052602060002090600202016000909190919091506000820151816000019080519060200190620001a19291906200025c565b50602082015181600101555050600260405180604001604052806040518060400160405280600681526020017f4d616472696400000000000000000000000000000000000000000000000000008152508152602001671bc16d674ec8000081525090806001815401808255809150506001900390600052602060002090600202016000909190919091506000820151816000019080519060200190620002499291906200025c565b5060208201518160010155505062000371565b8280546200026a906200030c565b90600052602060002090601f0160209004810192826200028e5760008555620002da565b82601f10620002a957805160ff1916838001178555620002da565b82800160010185558215620002da579182015b82811115620002d9578251825591602001919060010190620002bc565b5b509050620002e99190620002ed565b5090565b5b8082111562000308576000816000905550600101620002ee565b5090565b600060028204905060018216806200032557607f821691505b602082108114156200033c576200033b62000342565b5b50919050565b7f4e487b7100000000000000000000000000000000000000000000000000000000600052602260045260246000fd5b610eea80620003816000396000f3fe6080604052600436106100915760003560e01c80634bf02e7a116100595780634bf02e7a1461018457806381959427146101af5780638da5cb5b146101ed578063f269365a14610218578063f997114f1461025557610091565b80630ca97e481461009657806315ccf70f146100b25780632411ff73146100f057806329cd30b41461011b578063336989ae14610146575b600080fd5b6100b060048036038101906100ab9190610a1c565b61025f565b005b3480156100be57600080fd5b506100d960048036038101906100d49190610a1c565b61052b565b6040516100e7929190610b01565b60405180910390f35b3480156100fc57600080fd5b506101056105e7565b6040516101129190610b71565b60405180910390f35b34801561012757600080fd5b5061013061063e565b60405161013d9190610b71565b60405180910390f35b34801561015257600080fd5b5061016d600480360381019061016891906109af565b6106bc565b60405161017b929190610b8c565b60405180910390f35b34801561019057600080fd5b506101996106e0565b6040516101a69190610b71565b60405180910390f35b3480156101bb57600080fd5b506101d660048036038101906101d191906109dc565b6106ed565b6040516101e4929190610b01565b60405180910390f35b3480156101f957600080fd5b506102026107b6565b60405161020f9190610ae6565b60405180910390f35b34801561022457600080fd5b5061023f600480360381019061023a91906109af565b6107da565b60405161024c9190610b71565b60405180910390f35b61025d6107f2565b005b60006002828154811061027557610274610dc9565b5b906000526020600020906002020160405180604001604052908160008201805461029e90610cf0565b80601f01602080910402602001604051908101604052809291908181526020018280546102ca90610cf0565b80156103175780601f106102ec57610100808354040283529160200191610317565b820191906000526020600020905b8154815290600101906020018083116102fa57829003601f168201915b50505050508152602001600182015481525050905080602001513414610372576040517f08c379a000000000000000000000000000000000000000000000000000000000815260040161036990610b51565b60405180910390fd5b6000600360003373ffffffffffffffffffffffffffffffffffffffff1673ffffffffffffffffffffffffffffffffffffffff168152602001908152602001600020905060058160000160008282546103ca9190610bd1565b9250508190555060018160010160008282546103e69190610bd1565b92505081905550600460003373ffffffffffffffffffffffffffffffffffffffff1673ffffffffffffffffffffffffffffffffffffffff16815260200190815260200160002082908060018154018082558091505060019003906000526020600020906002020160009091909190915060008201518160000190805190602001906104729291906108e2565b50602082015181600101555050600560003373ffffffffffffffffffffffffffffffffffffffff1673ffffffffffffffffffffffffffffffffffffffff16815260200190815260200160002060008154809291906104cf90610d22565b91905055503373ffffffffffffffffffffffffffffffffffffffff167f8644b0eb56c7a568d35c9f35feeacfcdb42c3cfe3deb99e35d6ac27df853a08c836020015160405161051e9190610b71565b60405180910390a2505050565b6002818154811061053b57600080fd5b906000526020600020906002020160009150905080600001805461055e90610cf0565b80601f016020809104026020016040519081016040528092919081815260200182805461058a90610cf0565b80156105d75780601f106105ac576101008083540402835291602001916105d7565b820191906000526020600020905b8154815290600101906020018083116105ba57829003601f168201915b5050505050908060010154905082565b6000600360003373ffffffffffffffffffffffffffffffffffffffff1673ffffffffffffffffffffffffffffffffffffffff168152602001908152602001600020600001546001546106399190610c27565b905090565b60008060009054906101000a900473ffffffffffffffffffffffffffffffffffffffff1673ffffffffffffffffffffffffffffffffffffffff163373ffffffffffffffffffffffffffffffffffffffff161461069957600080fd5b60003090508073ffffffffffffffffffffffffffffffffffffffff163191505090565b60036020528060005260406000206000915090508060000154908060010154905082565b6000600280549050905090565b6004602052816000526040600020818154811061070957600080fd5b90600052602060002090600202016000915091505080600001805461072d90610cf0565b80601f016020809104026020016040519081016040528092919081815260200182805461075990610cf0565b80156107a65780601f1061077b576101008083540402835291602001916107a6565b820191906000526020600020905b81548152906001019060200180831161078957829003601f168201915b5050505050908060010154905082565b60008054906101000a900473ffffffffffffffffffffffffffffffffffffffff1681565b60056020528060005260406000206000915090505481565b6000600360003373ffffffffffffffffffffffffffffffffffffffff1673ffffffffffffffffffffffffffffffffffffffff1681526020019081526020016000209050600081600001546001546108499190610c27565b905080471161088d576040517f08c379a000000000000000000000000000000000000000000000000000000000815260040161088490610b31565b60405180910390fd5b3373ffffffffffffffffffffffffffffffffffffffff166108fc829081150290604051600060405180830381858888f193505050501580156108d3573d6000803e3d6000fd5b50600082600001819055505050565b8280546108ee90610cf0565b90600052602060002090601f0160209004810192826109105760008555610957565b82601f1061092957805160ff1916838001178555610957565b82800160010185558215610957579182015b8281111561095657825182559160200191906001019061093b565b5b5090506109649190610968565b5090565b5b80821115610981576000816000905550600101610969565b5090565b60008135905061099481610e86565b92915050565b6000813590506109a981610e9d565b92915050565b6000602082840312156109c5576109c4610df8565b5b60006109d384828501610985565b91505092915050565b600080604083850312156109f3576109f2610df8565b5b6000610a0185828601610985565b9250506020610a128582860161099a565b9150509250929050565b600060208284031215610a3257610a31610df8565b5b6000610a408482850161099a565b91505092915050565b610a5281610c81565b82525050565b6000610a6382610bb5565b610a6d8185610bc0565b9350610a7d818560208601610cbd565b610a8681610dfd565b840191505092915050565b6000610a9e603383610bc0565b9150610aa982610e0e565b604082019050919050565b6000610ac1601583610bc0565b9150610acc82610e5d565b602082019050919050565b610ae081610cb3565b82525050565b6000602082019050610afb6000830184610a49565b92915050565b60006040820190508181036000830152610b1b8185610a58565b9050610b2a6020830184610ad7565b9392505050565b60006020820190508181036000830152610b4a81610a91565b9050919050565b60006020820190508181036000830152610b6a81610ab4565b9050919050565b6000602082019050610b866000830184610ad7565b92915050565b6000604082019050610ba16000830185610ad7565b610bae6020830184610ad7565b9392505050565b600081519050919050565b600082825260208201905092915050565b6000610bdc82610cb3565b9150610be783610cb3565b9250827fffffffffffffffffffffffffffffffffffffffffffffffffffffffffffffffff03821115610c1c57610c1b610d6b565b5b828201905092915050565b6000610c3282610cb3565b9150610c3d83610cb3565b9250817fffffffffffffffffffffffffffffffffffffffffffffffffffffffffffffffff0483118215151615610c7657610c75610d6b565b5b828202905092915050565b6000610c8c82610c93565b9050919050565b600073ffffffffffffffffffffffffffffffffffffffff82169050919050565b6000819050919050565b60005b83811015610cdb578082015181840152602081019050610cc0565b83811115610cea576000848401525b50505050565b60006002820490506001821680610d0857607f821691505b60208210811415610d1c57610d1b610d9a565b5b50919050565b6000610d2d82610cb3565b91507fffffffffffffffffffffffffffffffffffffffffffffffffffffffffffffffff821415610d6057610d5f610d6b565b5b600182019050919050565b7f4e487b7100000000000000000000000000000000000000000000000000000000600052601160045260246000fd5b7f4e487b7100000000000000000000000000000000000000000000000000000000600052602260045260246000fd5b7f4e487b7100000000000000000000000000000000000000000000000000000000600052603260045260246000fd5b600080fd5b6000601f19601f8301169050919050565b7f5468657265206973206e6f7420656e6f75676820657468657220696e2074686560008201527f20636f6e747261637420746f2072657475726e00000000000000000000000000602082015250565b7f42616c616e6365206e6f7420617661696c61626c650000000000000000000000600082015250565b610e8f81610c81565b8114610e9a57600080fd5b50565b610ea681610cb3565b8114610eb157600080fd5b5056fea26469706673582212200ce28d461784d27596e2365cf0b6ceb06dcb42e419c6fa937b351b529f3fedd164736f6c63430008060033",
  "immutableReferences": {},
  "source": "// SPDX-License-Identifier: MIT\r\npragma solidity 0.8.6;\r\n\r\nimport \"./Ownable.sol\";\r\n\r\ncontract Airline is Ownable {\r\n    struct Customer {\r\n        uint256 loyaltyPoints;\r\n        uint256 totalFlights;\r\n    }\r\n\r\n    struct Flight {\r\n        string name;\r\n        uint256 price;\r\n    }\r\n\r\n    uint256 etherPerPoint = 0.5 ether;\r\n\r\n    Flight[] public flights;\r\n\r\n    mapping(address => Customer) public customers;\r\n    mapping(address => Flight[]) public customerFlights;\r\n    mapping(address => uint256) public customerTotalFlights;\r\n\r\n    event FlightPurchased(address indexed customer, uint256 price);\r\n\r\n    constructor() {\r\n        flights.push(Flight(\"Tokio\", 4 ether));\r\n        flights.push(Flight(\"Germany\", 1 ether));\r\n        flights.push(Flight(\"Madrid\", 2 ether));\r\n    }\r\n\r\n    function buyFlight(uint256 flightIndex) public payable {\r\n        Flight memory flight = flights[flightIndex];\r\n        require(msg.value == flight.price, \"Balance not available\");\r\n\r\n        Customer storage customer = customers[msg.sender];\r\n        customer.loyaltyPoints += 5;\r\n        customer.totalFlights += 1;\r\n        customerFlights[msg.sender].push(flight);\r\n        customerTotalFlights[msg.sender]++;\r\n\r\n        emit FlightPurchased(msg.sender, flight.price);\r\n    }\r\n\r\n    function totalFlights() public view returns (uint256) {\r\n        return flights.length;\r\n    }\r\n\r\n    function redeemLoyaltyPoints() public payable{\r\n        Customer storage customer = customers[msg.sender];\r\n        uint256 etherToRefund = etherPerPoint * customer.loyaltyPoints;\r\n        require(address(this).balance > etherToRefund, \"There is not enough ether in the contract to return\"); \r\n        payable(msg.sender).transfer(etherToRefund);\r\n        customer.loyaltyPoints = 0;\r\n    }\r\n\r\n    function getRefundableEther() public view returns (uint256) {\r\n        return etherPerPoint * customers[msg.sender].loyaltyPoints;\r\n    }\r\n\r\n    function getAirlineBalance() public view isOwner returns (uint256) {\r\n        address airlineAddress = address(this);\r\n        return airlineAddress.balance;\r\n    }\r\n}\r\n",
  "sourcePath": "D:/3. Proyectos/Blockchain-Ethereum/truffle-projects/project-airline/contracts/Airline.sol",
  "compiler": {
    "name": "solc",
    "version": "0.8.6+commit.11564f7e.Emscripten.clang"
  },
  "schemaVersion": "3.4.1",
  "updatedAt": "2021-08-10T04:54:48.156Z",
  "networkType": "ethereum",
  "devdoc": {
    "kind": "dev",
    "methods": {},
    "version": 1
  },
  "userdoc": {
    "kind": "user",
    "methods": {},
    "version": 1
  }
}